{
  "abi": [
    {
      "inputs": [
        {
          "internalType": "address",
          "name": "_addressProvider",
          "type": "address"
        }
      ],
      "stateMutability": "nonpayable",
      "type": "constructor"
    },
    {
      "inputs": [],
      "name": "ADDRESSES_PROVIDER",
      "outputs": [
        {
          "internalType": "contract IPoolAddressesProvider",
          "name": "",
          "type": "address"
        }
      ],
      "stateMutability": "view",
      "type": "function"
    },
    {
      "inputs": [],
      "name": "POOL",
      "outputs": [
        {
          "internalType": "contract IPool",
          "name": "",
          "type": "address"
        }
      ],
      "stateMutability": "view",
      "type": "function"
    },
    {
      "inputs": [
        {
          "internalType": "address",
          "name": "_poolContractAddress",
          "type": "address"
        }
      ],
      "name": "allowanceLINK",
      "outputs": [
        {
          "internalType": "uint256",
          "name": "",
          "type": "uint256"
        }
      ],
      "stateMutability": "view",
      "type": "function"
    },
    {
      "inputs": [
        {
          "internalType": "uint256",
          "name": "_amount",
          "type": "uint256"
        },
        {
          "internalType": "address",
          "name": "_poolContractAddress",
          "type": "address"
        }
      ],
      "name": "approveLINK",
      "outputs": [
        {
          "internalType": "bool",
          "name": "",
          "type": "bool"
        }
      ],
      "stateMutability": "nonpayable",
      "type": "function"
    },
    {
      "inputs": [
        {
          "internalType": "address",
          "name": "_tokenAddress",
          "type": "address"
        }
      ],
      "name": "getBalance",
      "outputs": [
        {
          "internalType": "uint256",
          "name": "",
          "type": "uint256"
        }
      ],
      "stateMutability": "view",
      "type": "function"
    },
    {
      "inputs": [
        {
          "internalType": "address",
          "name": "_userAddress",
          "type": "address"
        }
      ],
      "name": "getUserAccountData",
      "outputs": [
        {
          "internalType": "uint256",
          "name": "totalCollateralBase",
          "type": "uint256"
        },
        {
          "internalType": "uint256",
          "name": "totalDebtBase",
          "type": "uint256"
        },
        {
          "internalType": "uint256",
          "name": "availableBorrowsBase",
          "type": "uint256"
        },
        {
          "internalType": "uint256",
          "name": "currentLiquidationThreshold",
          "type": "uint256"
        },
        {
          "internalType": "uint256",
          "name": "ltv",
          "type": "uint256"
        },
        {
          "internalType": "uint256",
          "name": "healthFactor",
          "type": "uint256"
        }
      ],
      "stateMutability": "view",
      "type": "function"
    },
    {
      "inputs": [
        {
          "internalType": "address",
          "name": "_tokenAddress",
          "type": "address"
        },
        {
          "internalType": "uint256",
          "name": "_amount",
          "type": "uint256"
        }
      ],
      "name": "supplyLiquidity",
      "outputs": [],
      "stateMutability": "nonpayable",
      "type": "function"
    },
    {
      "inputs": [
        {
          "internalType": "address",
          "name": "_tokenAddress",
          "type": "address"
        }
      ],
      "name": "withdraw",
      "outputs": [],
      "stateMutability": "nonpayable",
      "type": "function"
    },
    {
      "inputs": [
        {
          "internalType": "address",
          "name": "_tokenAddress",
          "type": "address"
        },
        {
          "internalType": "uint256",
          "name": "_amount",
          "type": "uint256"
        }
      ],
      "name": "withdrawlLiquidity",
      "outputs": [
        {
          "internalType": "uint256",
          "name": "",
          "type": "uint256"
        }
      ],
      "stateMutability": "nonpayable",
      "type": "function"
    },
    {
      "stateMutability": "payable",
      "type": "receive"
    }
  ],
  "bytecode": {
    "object": "0x60e060405273514910771af9ca656af840dff83e8264ecf986ca60c05234801561002857600080fd5b5060405161096e38038061096e833981016040819052610047916100ee565b6001600160a01b03811660808190526040805163026b1d5f60e01b8152905163026b1d5f916004808201926020929091908290030181865afa158015610091573d6000803e3d6000fd5b505050506040513d601f19601f820116820180604052508101906100b591906100ee565b6001600160a01b0390811660a052600080546001600160a01b0319908116331790915560c051600180549190931691161790555061011e565b60006020828403121561010057600080fd5b81516001600160a01b038116811461011757600080fd5b9392505050565b60805160a05160c05161081061015e6000396000505060008181610179015281816104d60152818161058a015261061a0152600060a801526108106000f3fe60806040526004361061008a5760003560e01c80637535d246116100595780637535d246146101675780638a11069c1461019b578063b39e3771146101bb578063bf92857c146101db578063f8b2cb4f1461022857600080fd5b80630542975c146100965780632e8984eb146100e757806351cff8d91461011757806370ca79cd1461013957600080fd5b3661009157005b600080fd5b3480156100a257600080fd5b506100ca7f000000000000000000000000000000000000000000000000000000000000000081565b6040516001600160a01b0390911681526020015b60405180910390f35b3480156100f357600080fd5b506101076101023660046106e4565b610248565b60405190151581526020016100de565b34801561012357600080fd5b50610137610132366004610710565b6102c7565b005b34801561014557600080fd5b50610159610154366004610710565b610424565b6040519081526020016100de565b34801561017357600080fd5b506100ca7f000000000000000000000000000000000000000000000000000000000000000081565b3480156101a757600080fd5b506101596101b636600461072b565b6104a0565b3480156101c757600080fd5b506101376101d636600461072b565b61054f565b3480156101e757600080fd5b506101fb6101f6366004610710565b6105ee565b604080519687526020870195909552938501929092526060840152608083015260a082015260c0016100de565b34801561023457600080fd5b50610159610243366004610710565b610699565b60015460405163095ea7b360e01b81526001600160a01b03838116600483015260248201859052600092169063095ea7b3906044016020604051808303816000875af115801561029c573d6000803e3d6000fd5b505050506040513d601f19601f820116820180604052508101906102c09190610755565b9392505050565b6000546001600160a01b0316331461033c5760405162461bcd60e51b815260206004820152602e60248201527f4f6e6c792074686520636f6e7472616374206f776e65722063616e2063616c6c60448201526d103a3434b990333ab731ba34b7b760911b606482015260840160405180910390fd5b6040516370a0823160e01b815230600482015281906001600160a01b0382169063a9059cbb90339083906370a0823190602401602060405180830381865afa15801561038c573d6000803e3d6000fd5b505050506040513d601f19601f820116820180604052508101906103b09190610777565b6040516001600160e01b031960e085901b1681526001600160a01b03909216600483015260248201526044016020604051808303816000875af11580156103fb573d6000803e3d6000fd5b505050506040513d601f19601f8201168201806040525081019061041f9190610755565b505050565b600154604051636eb1769f60e11b81523060048201526001600160a01b038381166024830152600092169063dd62ed3e906044015b602060405180830381865afa158015610476573d6000803e3d6000fd5b505050506040513d601f19601f8201168201806040525081019061049a9190610777565b92915050565b604051631a4ca37b60e21b81526001600160a01b03808416600483015260248201839052306044830181905260009285928592917f0000000000000000000000000000000000000000000000000000000000000000909116906369328dec906064016020604051808303816000875af1158015610521573d6000803e3d6000fd5b505050506040513d601f19601f820116820180604052508101906105459190610777565b9695505050505050565b60405163617ba03760e01b81526001600160a01b038084166004830152602482018390523060448301819052600060648401819052859385937f0000000000000000000000000000000000000000000000000000000000000000169063617ba03790608401600060405180830381600087803b1580156105ce57600080fd5b505af11580156105e2573d6000803e3d6000fd5b50505050505050505050565b604051632fe4a15f60e21b81526001600160a01b038281166004830152600091829182918291829182917f0000000000000000000000000000000000000000000000000000000000000000169063bf92857c9060240160c060405180830381865afa158015610661573d6000803e3d6000fd5b505050506040513d601f19601f820116820180604052508101906106859190610790565b949c939b5091995097509550909350915050565b6040516370a0823160e01b81523060048201526000906001600160a01b038316906370a0823190602401610459565b80356001600160a01b03811681146106df57600080fd5b919050565b600080604083850312156106f757600080fd5b82359150610707602084016106c8565b90509250929050565b60006020828403121561072257600080fd5b6102c0826106c8565b6000806040838503121561073e57600080fd5b610747836106c8565b946020939093013593505050565b60006020828403121561076757600080fd5b815180151581146102c057600080fd5b60006020828403121561078957600080fd5b5051919050565b60008060008060008060c087890312156107a957600080fd5b865195506020870151945060408701519350606087015192506080870151915060a08701519050929550929550929556fea26469706673582212204995c3ccbf3a5929f7a0da4acffe274e458f3b112f41eca0fa4133e9abf44df764736f6c63430008130033",
    "linkReferences": {}
  },
  "methodIdentifiers": {
    "ADDRESSES_PROVIDER()": "0542975c",
    "POOL()": "7535d246",
    "allowanceLINK(address)": "70ca79cd",
    "approveLINK(uint256,address)": "2e8984eb",
    "getBalance(address)": "f8b2cb4f",
    "getUserAccountData(address)": "bf92857c",
    "supplyLiquidity(address,uint256)": "b39e3771",
    "withdraw(address)": "51cff8d9",
    "withdrawlLiquidity(address,uint256)": "8a11069c"
  },
  "id": 4
}